{
  "abi": [
    {
      "anonymous": false,
      "inputs": [
        {
          "indexed": true,
          "internalType": "address",
          "name": "previousOwner",
          "type": "address"
        },
        {
          "indexed": true,
          "internalType": "address",
          "name": "newOwner",
          "type": "address"
        }
      ],
      "name": "OwnershipTransferred",
      "type": "event"
    },
    {
      "inputs": [],
      "name": "TRANSFER_REQUEST_ID",
      "outputs": [
        {
          "internalType": "uint64",
          "name": "",
          "type": "uint64"
        }
      ],
      "stateMutability": "view",
      "type": "function"
    },
    {
      "inputs": [
        {
          "internalType": "address",
          "name": "",
          "type": "address"
        }
      ],
      "name": "addressToId",
      "outputs": [
        {
          "internalType": "uint256",
          "name": "",
          "type": "uint256"
        }
      ],
      "stateMutability": "view",
      "type": "function"
    },
    {
      "inputs": [],
      "name": "getSupportedRequests",
      "outputs": [
        {
          "internalType": "uint64[]",
          "name": "arr",
          "type": "uint64[]"
        }
      ],
      "stateMutability": "view",
      "type": "function"
    },
    {
      "inputs": [
        {
          "internalType": "uint64",
          "name": "requestId",
          "type": "uint64"
        }
      ],
      "name": "getZKPRequest",
      "outputs": [
        {
          "components": [
            {
              "internalType": "uint256",
              "name": "schema",
              "type": "uint256"
            },
            {
              "internalType": "uint256",
              "name": "slotIndex",
              "type": "uint256"
            },
            {
              "internalType": "uint256",
              "name": "operator",
              "type": "uint256"
            },
            {
              "internalType": "uint256[]",
              "name": "value",
              "type": "uint256[]"
            },
            {
              "internalType": "string",
              "name": "circuitId",
              "type": "string"
            }
          ],
          "internalType": "struct ICircuitValidator.CircuitQuery",
          "name": "",
          "type": "tuple"
        }
      ],
      "stateMutability": "view",
      "type": "function"
    },
    {
      "inputs": [
        {
          "internalType": "uint256",
          "name": "",
          "type": "uint256"
        }
      ],
      "name": "idToAddress",
      "outputs": [
        {
          "internalType": "address",
          "name": "",
          "type": "address"
        }
      ],
      "stateMutability": "view",
      "type": "function"
    },
    {
      "inputs": [],
      "name": "owner",
      "outputs": [
        {
          "internalType": "address",
          "name": "",
          "type": "address"
        }
      ],
      "stateMutability": "view",
      "type": "function"
    },
    {
      "inputs": [
        {
          "internalType": "address",
          "name": "",
          "type": "address"
        },
        {
          "internalType": "uint64",
          "name": "",
          "type": "uint64"
        }
      ],
      "name": "proofs",
      "outputs": [
        {
          "internalType": "bool",
          "name": "",
          "type": "bool"
        }
      ],
      "stateMutability": "view",
      "type": "function"
    },
    {
      "inputs": [],
      "name": "renounceOwnership",
      "outputs": [],
      "stateMutability": "nonpayable",
      "type": "function"
    },
    {
      "inputs": [
        {
          "internalType": "uint64",
          "name": "",
          "type": "uint64"
        }
      ],
      "name": "requestQueries",
      "outputs": [
        {
          "internalType": "uint256",
          "name": "schema",
          "type": "uint256"
        },
        {
          "internalType": "uint256",
          "name": "slotIndex",
          "type": "uint256"
        },
        {
          "internalType": "uint256",
          "name": "operator",
          "type": "uint256"
        },
        {
          "internalType": "string",
          "name": "circuitId",
          "type": "string"
        }
      ],
      "stateMutability": "view",
      "type": "function"
    },
    {
      "inputs": [
        {
          "internalType": "uint64",
          "name": "",
          "type": "uint64"
        }
      ],
      "name": "requestValidators",
      "outputs": [
        {
          "internalType": "contract ICircuitValidator",
          "name": "",
          "type": "address"
        }
      ],
      "stateMutability": "view",
      "type": "function"
    },
    {
      "inputs": [
        {
          "internalType": "uint64",
          "name": "requestId",
          "type": "uint64"
        },
        {
          "internalType": "contract ICircuitValidator",
          "name": "validator",
          "type": "address"
        },
        {
          "components": [
            {
              "internalType": "uint256",
              "name": "schema",
              "type": "uint256"
            },
            {
              "internalType": "uint256",
              "name": "slotIndex",
              "type": "uint256"
            },
            {
              "internalType": "uint256",
              "name": "operator",
              "type": "uint256"
            },
            {
              "internalType": "uint256[]",
              "name": "value",
              "type": "uint256[]"
            },
            {
              "internalType": "string",
              "name": "circuitId",
              "type": "string"
            }
          ],
          "internalType": "struct ICircuitValidator.CircuitQuery",
          "name": "query",
          "type": "tuple"
        }
      ],
      "name": "setZKPRequest",
      "outputs": [
        {
          "internalType": "bool",
          "name": "",
          "type": "bool"
        }
      ],
      "stateMutability": "nonpayable",
      "type": "function"
    },
    {
      "inputs": [
        {
          "internalType": "uint64",
          "name": "requestId",
          "type": "uint64"
        },
        {
          "internalType": "uint256[]",
          "name": "inputs",
          "type": "uint256[]"
        },
        {
          "internalType": "uint256[2]",
          "name": "a",
          "type": "uint256[2]"
        },
        {
          "internalType": "uint256[2][2]",
          "name": "b",
          "type": "uint256[2][2]"
        },
        {
          "internalType": "uint256[2]",
          "name": "c",
          "type": "uint256[2]"
        }
      ],
      "name": "submitZKPResponse",
      "outputs": [
        {
          "internalType": "bool",
          "name": "",
          "type": "bool"
        }
      ],
      "stateMutability": "nonpayable",
      "type": "function"
    },
    {
      "inputs": [
        {
          "internalType": "uint256",
          "name": "",
          "type": "uint256"
        }
      ],
      "name": "supportedRequests",
      "outputs": [
        {
          "internalType": "uint64",
          "name": "",
          "type": "uint64"
        }
      ],
      "stateMutability": "view",
      "type": "function"
    },
    {
      "inputs": [
        {
          "internalType": "address",
          "name": "newOwner",
          "type": "address"
        }
      ],
      "name": "transferOwnership",
      "outputs": [],
      "stateMutability": "nonpayable",
      "type": "function"
    }
  ],
  "bytecode": {
    "object": "0x608060405234801561001057600080fd5b5061001a3361001f565b61006f565b600080546001600160a01b038381166001600160a01b0319831681178455604051919092169283917f8be0079c531659141344cd1fd0a4f28419497f9722a3daafe3b4186f6b6457e09190a35050565b6117618061007e6000396000f3fe608060405234801561001057600080fd5b50600436106100ea5760003560e01c8063b45c0fdf1161008c578063cb0e0d7d11610066578063cb0e0d7d14610242578063f143532614610270578063f2fde38b14610283578063fee207e61461029657600080fd5b8063b45c0fdf146101d1578063b68967e21461020f578063c76d08451461022257600080fd5b8063715018a6116100c8578063715018a61461016a5780638da5cb5b1461017457806396bf474114610185578063a8723114146101a857600080fd5b80632a2d0c47146100ef57806337ba95231461013557806363ec508f1461014a575b600080fd5b6101186100fd366004610e9b565b6005602052600090815260409020546001600160a01b031681565b6040516001600160a01b0390911681526020015b60405180910390f35b61013d6102a9565b60405161012c9190610eb4565b610152600181565b6040516001600160401b03909116815260200161012c565b610172610333565b005b6000546001600160a01b0316610118565b610198610193366004610f1d565b610347565b60405161012c9493929190610f84565b6101186101b6366004610f1d565b6003602052600090815260409020546001600160a01b031681565b6101ff6101df366004610fc8565b600160209081526000928352604080842090915290825290205460ff1681565b604051901515815260200161012c565b6101ff61021d36600461115c565b6103fa565b610235610230366004610f1d565b61065d565b60405161012c9190611261565b6102626102503660046112c1565b60066020526000908152604090205481565b60405190815260200161012c565b61015261027e366004610e9b565b6107b7565b6101726102913660046112c1565b6107f4565b6101ff6102a43660046112de565b61086d565b6060600480548060200260200160405190810160405280929190818152602001828054801561032957602002820191906000526020600020906000905b82829054906101000a90046001600160401b03166001600160401b0316815260200190600801906020826007010492830192600103820291508084116102e65790505b5050505050905090565b61033b6109e8565b6103456000610a42565b565b60026020819052600091825260409091208054600182015492820154600483018054929493919261037790611405565b80601f01602080910402602001604051908101604052809291908181526020018280546103a390611405565b80156103f05780601f106103c5576101008083540402835291602001916103f0565b820191906000526020600020905b8154815290600101906020018083116103d357829003601f168201915b5050505050905084565b6001600160401b0385166000908152600360205260408120546001600160a01b031661047e5760405162461bcd60e51b815260206004820152602860248201527f76616c696461746f72206973206e6f742073657420666f7220746869732072656044820152671c5d595cdd081a5960c21b60648201526084015b60405180910390fd5b6001600160401b03861660009081526002602052604081205490036104f15760405162461bcd60e51b8152602060048201526024808201527f7175657279206973206e6f742073657420666f722074686973207265717565736044820152631d081a5960e21b6064820152608401610475565b6001600160401b03861660009081526003602052604090205461052090879087906001600160a01b0316610a92565b6001600160401b03861660009081526003602090815260408083205460029092529182902091516319f8754160e21b81526001600160a01b03909116916367e1d50491610578918991899189918991906004016114df565b602060405180830381865afa158015610595573d6000803e3d6000fd5b505050506040513d601f19601f820116820180604052508101906105b991906115cc565b6106055760405162461bcd60e51b815260206004820152601b60248201527f70726f6f6620726573706f6e7365206973206e6f742076616c696400000000006044820152606401610475565b3360009081526001602081815260408084206001600160401b038b1685528252808420805460ff19169093179092556003905290205461065190879087906001600160a01b0316610b86565b50600195945050505050565b61068f6040518060a0016040528060008152602001600081526020016000815260200160608152602001606081525090565b6001600160401b038216600090815260026020818152604092839020835160a08101855281548152600182015481840152928101548385015260038101805485518185028101850190965280865293949193606086019383018282801561071557602002820191906000526020600020905b815481526020019060010190808311610701575b5050505050815260200160048201805461072e90611405565b80601f016020809104026020016040519081016040528092919081815260200182805461075a90611405565b80156107a75780601f1061077c576101008083540402835291602001916107a7565b820191906000526020600020905b81548152906001019060200180831161078a57829003601f168201915b5050505050815250509050919050565b600481815481106107c757600080fd5b9060005260206000209060049182820401919006600802915054906101000a90046001600160401b031681565b6107fc6109e8565b6001600160a01b0381166108615760405162461bcd60e51b815260206004820152602660248201527f4f776e61626c653a206e6577206f776e657220697320746865207a65726f206160448201526564647265737360d01b6064820152608401610475565b61086a81610a42565b50565b60006108776109e8565b6001600160401b0384166000908152600360205260409020546001600160a01b03166108fb576004805460018101825560008290529081047f8a35acfbc15ff81a39ae7d344fd709f28e8600b4aa8c65c6b64bfe7fe36bd19b0180546001600160401b0380881660086003909516949094026101000a938402930219169190911790555b60608201516001600160401b038516600090815260026020908152604090912082516109309360039092019290910190610e3b565b506040808301516001600160401b038616600090815260026020819052929020918201556080830151600490910190610969908261163d565b506020808301516001600160401b03861660009081526002909252604090912060018101919091558251815560808301516004909101906109aa908261163d565b50506001600160401b038316600090815260036020526040902080546001600160a01b0384166001600160a01b031990911617905560019392505050565b6000546001600160a01b031633146103455760405162461bcd60e51b815260206004820181905260248201527f4f776e61626c653a2063616c6c6572206973206e6f7420746865206f776e65726044820152606401610475565b600080546001600160a01b038381166001600160a01b0319831681178455604051919092169283917f8be0079c531659141344cd1fd0a4f28419497f9722a3daafe3b4186f6b6457e09190a35050565b6000610b1783836001600160a01b0316639f442afa6040518163ffffffff1660e01b8152600401602060405180830381865afa158015610ad6573d6000803e3d6000fd5b505050506040513d601f19601f82011682018060405250810190610afa91906116fc565b81518110610b0a57610b0a611715565b6020026020010151610cae565b9050336001600160a01b03821614610b805760405162461bcd60e51b815260206004820152602660248201527f6164647265737320696e2070726f6f66206973206e6f742073656e646572206160448201526564647265737360d01b6064820152608401610475565b50505050565b6001600160401b0383166001148015610bac575033600090815260066020526040902054155b610c095760405162461bcd60e51b815260206004820152602860248201527f70726f6f662063616e6e6f74206265207375626d6974746564206d6f7265207460448201526768616e206f6e636560c01b6064820152608401610475565b600082826001600160a01b0316639f442afa6040518163ffffffff1660e01b8152600401602060405180830381865afa158015610c4a573d6000803e3d6000fd5b505050506040513d601f19601f82011682018060405250810190610c6e91906116fc565b81518110610c7e57610c7e611715565b602090810291909101810151600090815260059091526040902080546001600160a01b0319163317905550505050565b6000610e0b610e04610dff8460008190506008817eff00ff00ff00ff00ff00ff00ff00ff00ff00ff00ff00ff00ff00ff00ff00ff16901b6008827fff00ff00ff00ff00ff00ff00ff00ff00ff00ff00ff00ff00ff00ff00ff00ff0016901c1790506010817dffff0000ffff0000ffff0000ffff0000ffff0000ffff0000ffff0000ffff16901b6010827fffff0000ffff0000ffff0000ffff0000ffff0000ffff0000ffff0000ffff000016901c1790506020817bffffffff00000000ffffffff00000000ffffffff00000000ffffffff16901b6020827fffffffff00000000ffffffff00000000ffffffff00000000ffffffff0000000016901c17905060408177ffffffffffffffff0000000000000000ffffffffffffffff16901b60408277ffffffffffffffff0000000000000000ffffffffffffffff1916901c179050608081901b608082901c179050919050565b610e11565b6014015190565b92915050565b60408051602080825281830190925260609160208201818036833750505060208101929092525090565b828054828255906000526020600020908101928215610e76579160200282015b82811115610e76578251825591602001919060010190610e5b565b50610e82929150610e86565b5090565b5b80821115610e825760008155600101610e87565b600060208284031215610ead57600080fd5b5035919050565b6020808252825182820181905260009190848201906040850190845b81811015610ef55783516001600160401b031683529284019291840191600101610ed0565b50909695505050505050565b80356001600160401b0381168114610f1857600080fd5b919050565b600060208284031215610f2f57600080fd5b610f3882610f01565b9392505050565b60008151808452602060005b82811015610f66578481018201518682018301528101610f4b565b506000858301820152601f909101601f191690930190920192915050565b848152836020820152826040820152608060608201526000610fa96080830184610f3f565b9695505050505050565b6001600160a01b038116811461086a57600080fd5b60008060408385031215610fdb57600080fd5b8235610fe681610fb3565b9150610ff460208401610f01565b90509250929050565b634e487b7160e01b600052604160045260246000fd5b60405160a081016001600160401b038111828210171561103557611035610ffd565b60405290565b604080519081016001600160401b038111828210171561103557611035610ffd565b604051601f8201601f191681016001600160401b038111828210171561108557611085610ffd565b604052919050565b600082601f83011261109e57600080fd5b813560206001600160401b038211156110b9576110b9610ffd565b8160051b6110c882820161105d565b92835284810182019282810190878511156110e257600080fd5b83870192505b84831015611101578235825291830191908301906110e8565b979650505050505050565b600082601f83011261111d57600080fd5b61112561103b565b80604084018581111561113757600080fd5b845b81811015611151578035845260209384019301611139565b509095945050505050565b6000806000806000610140868803121561117557600080fd5b61117e86610f01565b94506020808701356001600160401b0381111561119a57600080fd5b6111a689828a0161108d565b95505060406111b789828a0161110c565b945088609f8901126111c857600080fd5b6111d061103b565b806101008a018b8111156111e357600080fd5b60808b015b81811015611207576111fa8d8261110c565b84529285019284016111e8565b508196506112158c8261110c565b955050505050509295509295909350565b600081518084526020808501945080840160005b838110156112565781518752958201959082019060010161123a565b509495945050505050565b602081528151602082015260208201516040820152604082015160608201526000606083015160a0608084015261129b60c0840182611226565b90506080840151601f198483030160a08501526112b88282610f3f565b95945050505050565b6000602082840312156112d357600080fd5b8135610f3881610fb3565b6000806000606084860312156112f357600080fd5b6112fc84610f01565b925060208085013561130d81610fb3565b925060408501356001600160401b038082111561132957600080fd5b9086019060a0828903121561133d57600080fd5b611345611013565b8235815283830135848201526040830135604082015260608301358281111561136d57600080fd5b6113798a82860161108d565b60608301525060808301358281111561139157600080fd5b80840193505088601f8401126113a657600080fd5b8235828111156113b8576113b8610ffd565b6113ca601f8201601f1916860161105d565b925080835289858286010111156113e057600080fd5b8085850186850137600085828501015250816080820152809450505050509250925092565b600181811c9082168061141957607f821691505b60208210810361143957634e487b7160e01b600052602260045260246000fd5b50919050565b8060005b6002811015610b80578151845260209384019390910190600101611443565b6000815461146f81611405565b80855260206001838116801561148c57600181146114a6576114d4565b60ff1985168884015283151560051b8801830195506114d4565b866000528260002060005b858110156114cc5781548a82018601529083019084016114b1565b890184019650505b505050505092915050565b60006101408083526114f381840189611226565b905060206115038185018961143f565b606084018760005b60028110156115325761151f83835161143f565b604092909201919083019060010161150b565b50505061154260e085018761143f565b83820361012085015284548252600180860154828401526002860154604084015260a0606084018190526003870180549185018290526000908152838120929160c08601905b808310156115a55784548252938301939183019190850190611588565b5085810360808701526115bb8160048b01611462565b9d9c50505050505050505050505050565b6000602082840312156115de57600080fd5b81518015158114610f3857600080fd5b601f82111561163857600081815260208120601f850160051c810160208610156116155750805b601f850160051c820191505b8181101561163457828155600101611621565b5050505b505050565b81516001600160401b0381111561165657611656610ffd565b61166a816116648454611405565b846115ee565b602080601f83116001811461169f57600084156116875750858301515b600019600386901b1c1916600185901b178555611634565b600085815260208120601f198616915b828110156116ce578886015182559484019460019091019084016116af565b50858210156116ec5787850151600019600388901b60f8161c191681555b5050505050600190811b01905550565b60006020828403121561170e57600080fd5b5051919050565b634e487b7160e01b600052603260045260246000fdfea2646970667358221220cac8f0b6b2f0911ee52a6499f6a7f5f328045e28d891dc4c4266b913a9a25ee364736f6c63430008100033",
    "linkReferences": {}
  },
  "methodIdentifiers": {
    "TRANSFER_REQUEST_ID()": "63ec508f",
    "addressToId(address)": "cb0e0d7d",
    "getSupportedRequests()": "37ba9523",
    "getZKPRequest(uint64)": "c76d0845",
    "idToAddress(uint256)": "2a2d0c47",
    "owner()": "8da5cb5b",
    "proofs(address,uint64)": "b45c0fdf",
    "renounceOwnership()": "715018a6",
    "requestQueries(uint64)": "96bf4741",
    "requestValidators(uint64)": "a8723114",
    "setZKPRequest(uint64,address,(uint256,uint256,uint256,uint256[],string))": "fee207e6",
    "submitZKPResponse(uint64,uint256[],uint256[2],uint256[2][2],uint256[2])": "b68967e2",
    "supportedRequests(uint256)": "f1435326",
    "transferOwnership(address)": "f2fde38b"
  },
  "id": 2
}