{
  "abi": [
    {
      "inputs": [
        {
          "internalType": "contract IWorldID",
          "name": "_worldId",
          "type": "address"
        }
      ],
      "stateMutability": "nonpayable",
      "type": "constructor"
    },
    {
      "inputs": [],
      "name": "InvalidNullifier",
      "type": "error"
    },
    {
      "inputs": [
        {
          "internalType": "uint256",
          "name": "input",
          "type": "uint256"
        },
        {
          "internalType": "uint256",
          "name": "root",
          "type": "uint256"
        },
        {
          "internalType": "uint256",
          "name": "nullifierHash",
          "type": "uint256"
        },
        {
          "internalType": "uint256[8]",
          "name": "proof",
          "type": "uint256[8]"
        }
      ],
      "name": "verifyAndExecute",
      "outputs": [],
      "stateMutability": "nonpayable",
      "type": "function"
    }
  ],
  "bytecode": {
    "object": "0x7f7769645f73746167696e675f6263636565383463313161313066656531653366610100526b63666231616134653463666160a01b61012052602c60e090815261012c6040526100599061009d602090811b61018217901c565b60a052600160c05234801561006d57600080fd5b506040516103f83803806103f883398101604081905261008c916100d2565b6001600160a01b0316608052610131565b60006008826040516020016100b29190610102565b60408051601f198184030181529190528051602090910120901c92915050565b6000602082840312156100e457600080fd5b81516001600160a01b03811681146100fb57600080fd5b9392505050565b6000825160005b818110156101235760208186018101518583015201610109565b506000920191825250919050565b60805160a05160c05161029b61015d600039600060a70152600060f3015260006077015261029b6000f3fe608060405234801561001057600080fd5b506004361061002b5760003560e01c80636d90641014610030575b600080fd5b61004361003e3660046101b7565b610045565b005b60008281526020819052604090205460ff161561007557604051632ec8265960e11b815260040160405180910390fd5b7f00000000000000000000000000000000000000000000000000000000000000006001600160a01b0316633bc778e3847f00000000000000000000000000000000000000000000000000000000000000006100f0886040516020016100dc91815260200190565b604051602081830303815290604052610182565b867f0000000000000000000000000000000000000000000000000000000000000000876040518763ffffffff1660e01b8152600401610134969594939291906101fe565b60006040518083038186803b15801561014c57600080fd5b505afa158015610160573d6000803e3d6000fd5b50505060009283525050602081905260409020805460ff191660011790555050565b60006008826040516020016101979190610236565b60408051601f198184030181529190528051602090910120901c92915050565b6000806000806101608086880312156101cf57600080fd5b8535945060208601359350604086013592508681870111156101f057600080fd5b509295919450926060019150565b60006101a0820190508782528660208301528560408301528460608301528360808301526101008360a0840137979650505050505050565b6000825160005b81811015610257576020818601810151858301520161023d565b50600092019182525091905056fea2646970667358221220cf2c21d3dcbb8d0b476aec797e88d7e23844291ac6dc6da1d10185c0e797c7ea64736f6c63430008100033",
    "linkReferences": {}
  },
  "methodIdentifiers": {
    "verifyAndExecute(uint256,uint256,uint256,uint256[8])": "6d906410"
  },
  "id": 1
}