{
  "abi": [
    {
      "inputs": [
        {
          "internalType": "contract IWorldID",
          "name": "_worldId",
          "type": "address"
        }
      ],
      "stateMutability": "nonpayable",
      "type": "constructor"
    },
    {
      "inputs": [],
      "name": "InvalidNullifier",
      "type": "error"
    },
    {
      "inputs": [
        {
          "internalType": "string",
          "name": "input",
          "type": "string"
        },
        {
          "internalType": "uint256",
          "name": "root",
          "type": "uint256"
        },
        {
          "internalType": "uint256",
          "name": "nullifierHash",
          "type": "uint256"
        },
        {
          "internalType": "uint256[8]",
          "name": "proof",
          "type": "uint256[8]"
        }
      ],
      "name": "verifyAndExecute",
      "outputs": [],
      "stateMutability": "nonpayable",
      "type": "function"
    }
  ],
  "bytecode": {
    "object": "0x7f7769645f73746167696e675f6263636565383463313161313066656531653366610100526b63666231616134653463666160a01b61012052602c60e090815261012c6040526100599061009d602090811b61018317901c565b60a052600160c05234801561006d57600080fd5b5060405161045f38038061045f83398101604081905261008c916100d2565b6001600160a01b0316608052610131565b60006008826040516020016100b29190610102565b60408051601f198184030181529190528051602090910120901c92915050565b6000602082840312156100e457600080fd5b81516001600160a01b03811681146100fb57600080fd5b9392505050565b6000825160005b818110156101235760208186018101518583015201610109565b506000920191825250919050565b60805160a05160c05161030261015d600039600060a70152600060f301526000607701526103026000f3fe608060405234801561001057600080fd5b506004361061002b5760003560e01c806373475b4814610030575b600080fd5b61004361003e3660046101b8565b610045565b005b60008281526020819052604090205460ff161561007557604051632ec8265960e11b815260040160405180910390fd5b7f00000000000000000000000000000000000000000000000000000000000000006001600160a01b0316633bc778e3847f00000000000000000000000000000000000000000000000000000000000000006100f089896040516020016100dc929190610255565b604051602081830303815290604052610183565b867f0000000000000000000000000000000000000000000000000000000000000000876040518763ffffffff1660e01b815260040161013496959493929190610265565b60006040518083038186803b15801561014c57600080fd5b505afa158015610160573d6000803e3d6000fd5b50505060009283525050602081905260409020805460ff19166001179055505050565b6000600882604051602001610198919061029d565b60408051601f198184030181529190528051602090910120901c92915050565b60008060008060006101608087890312156101d257600080fd5b863567ffffffffffffffff808211156101ea57600080fd5b818901915089601f8301126101fe57600080fd5b81358181111561020d57600080fd5b8a602082850101111561021f57600080fd5b6020928301985096505087013593506040870135925080870188101561024457600080fd5b506060860190509295509295909350565b8183823760009101908152919050565b60006101a0820190508782528660208301528560408301528460608301528360808301526101008360a0840137979650505050505050565b6000825160005b818110156102be57602081860181015185830152016102a4565b50600092019182525091905056fea26469706673582212200782b9a14e2386370fca37b51d29d9d5de7cb7c4665da1d3f8aad204ba7c302264736f6c63430008100033",
    "linkReferences": {}
  },
  "methodIdentifiers": {
    "verifyAndExecute(string,uint256,uint256,uint256[8])": "73475b48"
  },
  "id": 6
}